{
  "_format": "hh-sol-artifact-1",
  "contractName": "ToDoList",
  "sourceName": "contracts/ToDoList.sol",
  "abi": [
    {
      "anonymous": false,
      "inputs": [
        {
          "indexed": false,
          "internalType": "uint256",
          "name": "taskId",
          "type": "uint256"
        },
        {
          "indexed": false,
          "internalType": "string",
          "name": "content",
          "type": "string"
        }
      ],
      "name": "TaskAdded",
      "type": "event"
    },
    {
      "anonymous": false,
      "inputs": [
        {
          "indexed": false,
          "internalType": "uint256",
          "name": "taskId",
          "type": "uint256"
        }
      ],
      "name": "TaskCompleted",
      "type": "event"
    },
    {
      "inputs": [
        {
          "internalType": "string",
          "name": "_content",
          "type": "string"
        }
      ],
      "name": "addTask",
      "outputs": [],
      "stateMutability": "nonpayable",
      "type": "function"
    },
    {
      "inputs": [
        {
          "internalType": "uint256",
          "name": "_taskId",
          "type": "uint256"
        }
      ],
      "name": "completeTask",
      "outputs": [],
      "stateMutability": "nonpayable",
      "type": "function"
    },
    {
      "inputs": [
        {
          "internalType": "uint256",
          "name": "_taskId",
          "type": "uint256"
        }
      ],
      "name": "getTask",
      "outputs": [
        {
          "internalType": "string",
          "name": "",
          "type": "string"
        },
        {
          "internalType": "bool",
          "name": "",
          "type": "bool"
        }
      ],
      "stateMutability": "view",
      "type": "function"
    },
    {
      "inputs": [],
      "name": "getTaskCount",
      "outputs": [
        {
          "internalType": "uint256",
          "name": "",
          "type": "uint256"
        }
      ],
      "stateMutability": "view",
      "type": "function"
    },
    {
      "inputs": [
        {
          "internalType": "uint256",
          "name": "",
          "type": "uint256"
        }
      ],
      "name": "tasks",
      "outputs": [
        {
          "internalType": "string",
          "name": "content",
          "type": "string"
        },
        {
          "internalType": "bool",
          "name": "isCompleted",
          "type": "bool"
        }
      ],
      "stateMutability": "view",
      "type": "function"
    }
  ],
  "bytecode": "0x608060405234801561001057600080fd5b50610762806100206000396000f3fe608060405234801561001057600080fd5b50600436106100575760003560e01c80631d65e77e1461005c57806367238562146100865780638d9776721461009b578063c17a340e146100ae578063e1e29558146100bf575b600080fd5b61006f61006a36600461043b565b6100d2565b60405161007d92919061049a565b60405180910390f35b6100996100943660046104d4565b61020a565b005b61006f6100a936600461043b565b6102cb565b60005460405190815260200161007d565b6100996100cd36600461043b565b61038a565b6000805460609190831061011f5760405162461bcd60e51b815260206004820152600f60248201526e125b9d985b1a59081d185cdac81251608a1b60448201526064015b60405180910390fd5b6000838154811061013257610132610585565b90600052602060002090600202016000016000848154811061015657610156610585565b906000526020600020906002020160010160009054906101000a900460ff168180546101819061059b565b80601f01602080910402602001604051908101604052809291908181526020018280546101ad9061059b565b80156101fa5780601f106101cf576101008083540402835291602001916101fa565b820191906000526020600020905b8154815290600101906020018083116101dd57829003601f168201915b5050505050915091509150915091565b604080518082019091528181526000602082018190528054600181018255908052815160029091027f290decd9548b62a8d60345a988386fc84ba6bc95484008f6362f93160ef3e563019081906102619082610624565b50602091909101516001918201805460ff191691151591909117905560008054909161028c916106e4565b90507f2ee7ce8bac091b03a0c391c07ee88a246bdd72bdc6b1ef1ce4d99220595d32c581836040516102bf92919061070b565b60405180910390a15050565b600081815481106102db57600080fd5b90600052602060002090600202016000915090508060000180546102fe9061059b565b80601f016020809104026020016040519081016040528092919081815260200182805461032a9061059b565b80156103775780601f1061034c57610100808354040283529160200191610377565b820191906000526020600020905b81548152906001019060200180831161035a57829003601f168201915b5050506001909301549192505060ff1682565b60005481106103cd5760405162461bcd60e51b815260206004820152600f60248201526e125b9d985b1a59081d185cdac81251608a1b6044820152606401610116565b6001600082815481106103e2576103e2610585565b600091825260209182902060029190910201600101805460ff1916921515929092179091556040518281527fc1fa7142cfb933d0855114a3bffde296944c30b727f297c14d0db4d553d3a5c7910160405180910390a150565b60006020828403121561044d57600080fd5b5035919050565b6000815180845260005b8181101561047a5760208185018101518683018201520161045e565b506000602082860101526020601f19601f83011685010191505092915050565b6040815260006104ad6040830185610454565b905082151560208301529392505050565b634e487b7160e01b600052604160045260246000fd5b6000602082840312156104e657600080fd5b813567ffffffffffffffff808211156104fe57600080fd5b818401915084601f83011261051257600080fd5b813581811115610524576105246104be565b604051601f8201601f19908116603f0116810190838211818310171561054c5761054c6104be565b8160405282815287602084870101111561056557600080fd5b826020860160208301376000928101602001929092525095945050505050565b634e487b7160e01b600052603260045260246000fd5b600181811c908216806105af57607f821691505b6020821081036105cf57634e487b7160e01b600052602260045260246000fd5b50919050565b601f82111561061f57600081815260208120601f850160051c810160208610156105fc5750805b601f850160051c820191505b8181101561061b57828155600101610608565b5050505b505050565b815167ffffffffffffffff81111561063e5761063e6104be565b6106528161064c845461059b565b846105d5565b602080601f831160018114610687576000841561066f5750858301515b600019600386901b1c1916600185901b17855561061b565b600085815260208120601f198616915b828110156106b657888601518255948401946001909101908401610697565b50858210156106d45787850151600019600388901b60f8161c191681555b5050505050600190811b01905550565b8181038181111561070557634e487b7160e01b600052601160045260246000fd5b92915050565b8281526040602082015260006107246040830184610454565b94935050505056fea264697066735822122041bcc15dc53538dc53e39d1c8d114f635924ae416b6d58b757b221123437a36f64736f6c63430008140033",
  "linkReferences": {},
  "deployedLinkReferences": {}
}